:100000005555AAAA7400000000000000000000007E
:10001000130100000000000000000000280C063959
:1000200000091000E9070000790200008F020000BB
:10003000A5020000BB020000D10200000000000089
:10004000000000000000000000000000151F00007C
:10005000191F000000000000E70200001B1F000045
:100060001D1F0000511D0000351F0000891D0000EC
:10007000371F0000391F0000471F0000551F0000F8
:10008000F9020000711F0000731F0000751F0000BF
:10009000771F0000791F00007B1F00000000000098
:1000A0000000000000000000000000000000000050
:1000B0000000000000000000000000000000000040
:1000C0000000000000000000000000000000000030
:1000D0000000000000000000000000000000000020
:1000E0007400000000F002F800F05AF80AA090E84E
:1000F000000C82448344AAF10107DA4501D100F0E3
:100100004FF8AFF2090EBAE80F0013F0010F18BF55
:10011000FB1A43F001031847ECE100000CE2000079
:100120000A444FF0000C10F8013B13F0070408BF1D
:1001300010F8014B1D1108BF10F8015B641E05D0BB
:1001400010F8016B641E01F8016BF9D113F0080F70
:100150001EBF10F8014BAD1C0C1B09D16D1E58BF02
:1001600001F801CBFAD505E014F8016B01F8016B39
:100170006D1EF9D59142D6D37047000000230024AC
:1001800000250026103A28BF78C1FBD8520728BFA7
:1001900030C148BF0B6070471FB51FBD10B510BD03
:1001A000DFF80CD0FFF7F8FF01F0F8FF0DF0F7FED5
:1001B0000009100003B4FFF7F1FF03BC0DF0F6FED9
:1001C0000A484FF0FF0101704FF0000080F31188E2
:1001D0004FF0000080F3098805484FF002010170DC
:1001E00062B604484FF080510160704722ED00E094
:1001F0000009100004ED00E002484FF0805101605A
:100200007047000004ED00E04FF0200080F31188FB
:10021000EFF3098058B10E49096820E9F00F8860B2
:1002200000B50B48006800F0F2F85DF804EB0848F0
:1002300008490A68026000688168B1E8F00F81F33C
:1002400009884EF0040E4FF0000080F311887047CB
:100250000409100008091000EFF311804FF020018D
:1002600081F31188704700004FF0000080F311887F
:100270007047000062B6704772B6704740BA704768
:10028000C0BA7047401E0028FCDC704700BE7047B3
:1002900040BA7047C0BA70471EF0040F0CBFEFF3AE
:1002A0000880EFF309804FF0010101F0A4BD1EF0BA
:1002B000040F0CBFEFF30880EFF309804FF0020149
:1002C00001F099BD1EF0040F0CBFEFF30880EFF3AF
:1002D00009804FF0030101F08EBD1EF0040F0CBF2A
:1002E000EFF30880EFF309804FF0040101F083BDC4
:1002F0001EF0040F0CBFEFF30880EFF309804FF0FE
:10030000050101F078BD4FF0000000B502F04DFC92
:100310005DF804EBFFF778BF1EF0040F0CBFEFF39E
:100320000880EFF309804FF0000101F064BD000088
:10033000194910B5012008701849002008601849B3
:100340000860184908601849086000F0B3F900F027
:1003500045F900F063F8002010BD10B5114800F019
:1003600024F90E490968884209D00D4908600A48F5
:100370000078022803D1BDE81040FFF73DBF10BD53
:1003800010B5FFF7EAFF044902200870FFF718FFD5
:100390004FF0FF3010BD00000009100004091000EC
:1003A000080910000C0910001009100070B50D4666
:1003B0000446C1698068CC220DF0F4FCE169A068B4
:1003C000084440384FF08071C163216A8163002185
:1003D00041630163C1628162C0E908514FF00B3192
:1003E000C1614FF00A3181614FF0093141614FF035
:1003F000083101614FF00731C1604FF00631816073
:100400004FF0053141604FF00431016070BD8269E9
:100410008168914201D801F066BF704710B54FF472
:10042000B4714C480DF0E8FC002010BD70B50546D5
:1004300000EBC501474800EB8104FFF70DFF0646BE
:10044000207828B13046FFF70FFF6FF0010070BD34
:100450000320207000206560206204F11C0000F081
:100460007DF83046FFF700FF002070BD2DE9F04118
:100470000F46384900EBC000012501EB800400263F
:10048000FFF7EAFE8046206A3843206204F11C0030
:10049000074600F08AF80BE0216A026C114202D094
:1004A00000F060F901262946384600F074F86D1C0A
:1004B0000028F1D1012E01D1FFF74FFF4046FFF791
:1004C000D3FE0020BDE8F08170B50D46214900EB58
:1004D000C00001EB8004FFF7BFFE216AA94321623F
:1004E000FFF7C2FE002070BD70B50C46194900EB45
:1004F000C00001EB800500202060FFF7ADFE296AF7
:100500002160FFF7B1FE002070BD2DE9F0410D46DE
:10051000104900EBC0001F46904601EB8004FFF736
:100520009BFE06460C4800680564216A294203D1F7
:1005300004F11C0100F028F9206A28403860B8F165
:10054000010F02D1206AA84320623046FFF78CFEDB
:100550000020B7E7980B100004091000002101608B
:100560000846704730B50A6812B10B46C46B09E003
:1005700000220860C0E903210BE000BF02F10C0378
:10058000D26812B1D56BA542F8DC1A68C0E9032124
:100590001860002030BD0068002201E0C068521CD5
:1005A0008A4201DA0028F9D1704700687047026971
:1005B0000AB1116831B96FF00400704701F10C0203
:1005C000C96839B18142F9D1C9681160002101615E
:1005D000084670476FF003007047000010B54FF4F5
:1005E000C87132480DF008FC002010BD2DE9F04123
:1005F000884605462D4900EB8500174601EBC004EF
:10060000FFF72AFE0646207830B13046FFF72CFE71
:100610006FF00100BDE8F08102202070E761142234
:10062000414604F1080065600DF077FB0020206270
:1006300004F12400FFF792FF3046FFF715FE00207B
:10064000E8E770B5194900EB800001EBC004FFF743
:1006500003FE0546D4E90701814205DB144804F195
:100660002401006800F090F8206A401C20622846AF
:10067000FFF7FAFD002070BD70B50C4900EB80005B
:1006800001EBC004FFF7E8FD0546206A08B1401EF3
:10069000206204F12400FFF788FF10B1606A00F0C7
:1006A00011F82846FFF7E0FD002070BD000D100096
:1006B0000409100010B54FF42A7140480DF09CFB5E
:1006C000002010BD10B5044690F8380002280BD069
:1006D0002046FFF76CFF022084F838003849204696
:1006E000FFF740FFFFF739FE002010BD2DE9F05F56
:1006F0008B460646314900EB06109046DDE90AA913
:1007000011F820201D461AB16FF00100BDE8F09FDE
:1007100001EB8004FFF7A0FD074601202070C4E92B
:100720000165C4E90585C4E907A91422594604F105
:1007300024000DF0F2FA002084F8370084F8380025
:100740006169E0602061C4E90F1020460C99FFF751
:100750002DFEA0602046FFF7B5FF3846FFF784FD69
:100760000020D3E710B5044690F83800022809D0DD
:100770002046FFF71CFF022084F83800104920466D
:10078000FFF7F0FE002010BD70B5044690F8380069
:100790000D4602280BD12046FFF709FF032084F8FD
:1007A000380029462046FFF7DDFEFFF7D6FD002082
:1007B00070BD04480068406870470000900E10004B
:1007C0000C09100004091000F0B58446002004460E
:1007D0000C4F14E05CF824600323DD0046FA05F2B8
:1007E00080EA02600825002802DA87EA400000E07B
:1007F00040006D1E002DF6DC5B1EEED5641C8C42A5
:10080000E8DBF0BD1B0000800D4880470D48004725
:10081000FEE7FEE7FEE7FEE7FEE7FEE7FEE7FEE7B0
:10082000FEE7FEE7FEE7FEE7FEE7FEE7FEE7FEE7A0
:10083000FEE7FEE7FEE7FEE7FEE7FEE7FEE7FEE790
:1008400057080000C50000004FF0005191F821004A
:1008500010F00C0009D0042809D0082809D078200D
:10086000401E01F8280F087070470F20F8E71E207F
:10087000F6E73C20F4E7704707493F200870E3E7BC
:10088000054931200870DFE7034800783F2801D090
:1008900000207047012070472100002010B5084952
:1008A000042001240023C1F8FC00064A14601360F0
:1008B000054BA0221A70C1F8FC01C86710BD0000EA
:1008C00084E000E0D403002202E400E010B504203C
:1008D00000F0D6F8052000F0D3F8062000F0D0F89C
:1008E000072000F0CDF8082000F0CAF87649002073
:1008F000086075492031086074490880724A121DE9
:100900001060714A2432106088806F4A083210608B
:100910006D4A2832106008816B4A0C3210606A4AB6
:100920002C3210608881684A10321060664A30327A
:10093000106008820621042000F0BAF80621052084
:1009400000F0B6F80621084600F0B2F806210720AC
:1009500000F0AEF80421082000F0AAF8042000F00E
:100960009BF8052000F098F8062000F095F8072085
:1009700000F092F8082000F08FF8042000F074F8DE
:10098000052000F071F8062000F06EF8072000F056
:100990006BF8BDE81040082000F066B800EB80005E
:1009A0004FF6FF7101EA4001474800220260C2068B
:1009B000118601210160704743490020086070479B
:1009C00000EB80004FF6FF7101EA40013E48002233
:1009D000001D02604FF000529186012101607047B6
:1009E00039490020091D0860704700EB80004FF670
:1009F000FF7101EA400134480022083002604FF0E4
:100A0000005211870121016070472F4900200831F1
:100A10000860704700EB80004FF6FF7101EA40016B
:100A2000294800220C3002604FF0005291870121CA
:100A300001607047244900200C310860704700EBCA
:100A400080004FF6FF7101EA40011F48002210307C
:100A500002601E4A0E3211800121016070471A495E
:100A6000002010310860704700F01F020121914002
:100A700040094FF0E02202EB8000C0F800117047FF
:100A800000F01F020121914040094FF0E02202EBEB
:100A90008000C0F88011704700F01F0201219140D2
:100AA00040094FF0E02202EB8000C0F8801270474E
:100AB0004907090E002803DA00F00F00044A00E09D
:100AC000044A8154704700002405002232000020AF
:100AD00014ED00E000E400E059480121016000212C
:100AE0000160704757480121016000210160704793
:100AF00010B5002000F08BF8534800220260FFF789
:100B0000F1FFFFF7E9FF514802605149A02008704A
:100B1000002000F088F8BDE81040002000F06BB81D
:100B20004A4801211C38016000210160704710B55E
:100B30000446002000F06BF843484149046001205E
:100B40000860002000F06FF8BDE81040002000F0C1
:100B500052B830B53C4889B00468002C11D020212F
:100B600068460DF049F93B4800783A4B00216A4647
:100B70005B1C02E0CD5C5554491C8142FADB1146F6
:100B8000A04709B030BD2E4901201C3908607047CC
:100B90003048203000782F4921310978401A00F080
:100BA0003F0070472C4902780A7042784A70827878
:100BB0008A70C278CA7002790A7142794A71827960
:100BC0008A71C079C871704724480068417882787A
:100BD0004FF00050437A0374214B1B7843744389D0
:100BE0001B0A83744389C37401754275C179817589
:100BF000017AC175704700F01F0201219140400940
:100C00004FF0E02202EB8000C0F80011704700F0C6
:100C10001F020121914040094FF0E02202EB8000C9
:100C2000C0F88011704700F01F0201219140400977
:100C30004FF0E02202EB8000C0F880127047000005
:100C40005C840022A0000022140910007C04002211
:100C500000E400E000040020000200202009100051
:100C60008009100010B5092000F02AF80A2000F0D1
:100C700027F8092000F030F80A2000F02DF80521AF
:100C8000092000F035F805210A2000F031F81E484F
:100C90007F21417081700171002100F848191B49C2
:100CA000096891F8C810CA0709D08A0707D510F853
:100CB0004A2FC1F38203012199408A43027010BD7B
:100CC00000F01F020121914040094FF0E02202EBA9
:100CD0008000C0F88011704700F01F020121914090
:100CE00040094FF0E02202EB8000C0F8801270470C
:100CF0004907090E002803DA00F00F00044A00E05B
:100D0000044A815470470000480000202009100068
:100D100014ED00E000E400E07047C9484FF4805152
:100D2000018000BF00BF00BF00BF00BF00BF00BF09
:100D300000BF00BF00BF4FF4C051018000BF00BF23
:100D400000BF00BF00BF4FF440610180704710B585
:100D5000BB4C0720A41E60700020207044F2C0002D
:100D6000608000BF00BF00BF4CF2C000608000BFC9
:100D700000BF00BF4CF2E00060800920FFF782FA5C
:100D800044F2E000608000BF00BF00BF4FF480402D
:100D9000608010BDF0B500252E464FF00054E027CE
:100DA00017E000BF883401F03F0160702170678058
:100DB00000BF00BF00BFD4F808C043F825C066805C
:100DC000883C00BF6D1C521E491C3F2901D9401CA4
:100DD000C0B2002AE6DCF0BD70B5994C2126268011
:100DE00000BF00BF00BF00BF00BF40F0210525804D
:100DF00000BF00BF00BF00BF00BF44F22101084395
:100E000020800420FFF73EFA258000BF00BF00BF0E
:100E100000BF00BF268000BF00BF00BF00BF00BFF3
:100E20000020208000BF00BF00BF00BF00BF70BD1A
:100E300070B50446824800250580824E012030604E
:100E400000F0EBF8FFF783FF00F0D7F85C20FFF726
:100E5000C3FF2346012202210720FFF79BFF231D2A
:100E6000012203210620FFF795FF04F10803012268
:100E700004210520FFF78EFF04F10C03012203215A
:100E80000720FFF787FF04F1100301220421072048
:100E9000FFF780FF00F0B1F8FFF759FFFFF73DFFC4
:100EA000356070BD70B50446654800250580654E07
:100EB0000120306000F0B1F8FFF749FF00F09DF825
:100EC0005C20FFF789FF2346012208210020FFF75D
:100ED00061FF231D012209210020FFF75BFF04F1C0
:100EE000080301220A210020FFF754FF04F10C033C
:100EF00001220B210020FFF74DFF04F11003012216
:100F00000C210020FFF746FF04F1140301220D21FC
:100F10000020FFF73FFF00F070F8FFF718FFFFF722
:100F2000FCFE356070BD2DE9F0439946079B002615
:100F300003B18026434C0023803CC0B21F466504A9
:100F40004FF001081DE000BF85F8890001F03F0C5B
:100F50004CEA060C85F888C059F823C0C5F88CC047
:100F6000C4F8B080C4F8B070491CC9B2402902D39B
:100F7000401CC0B20021D4F8C0C0BCF1000FFAD1AF
:100F80005B1C9342E0DBBDE8F0834FF0005282F837
:100F90008900002319B1802082F8880001E082F8DE
:100FA0008830284801218038C0F8AC10C0F8AC3037
:100FB000D0F8C0100029FBD1704738B50C46054663
:100FC0000021F820FFF7E1FF0020014600902B46AA
:100FD0002246F820FFF7A7FF38BD38B50C46054676
:100FE00001210020FFF7D1FF0120002100902B46B6
:100FF00022460846FFF797FF38BD10B5104C4FF456
:10100000804020800420FFF73DF90020208000BFB1
:1010100000BF00BF00BF00BF10BD10B5084C4FF4AB
:10102000C050208000BF00BF00BF00BF00BF4FF412
:10103000805020803520FFF725F90020208010BD4A
:101040008A000020801000222DE9F843FF4F002580
:101050002C463D70012000F0A8FB0E2000F0A5FBFF
:101060000D2000F0A2FB0C2000F09FFB032000F0FD
:101070009CFB012000F0A5FB0E2000F0A2FB0D2040
:1010800000F09FFB0C2000F09CFB032000F099FB7C
:1010900000F0BFFCDFF8B88300236A460221404617
:1010A00000F048FEEB4E9DF8010030709DF8000006
:1010B000402800D0032501236A460221404600F063
:1010C00039FE9DF80100317841EA001030709DF83A
:1010D0000000402800D003250521012000F07DFB01
:1010E00005210E2000F079FB05210D2000F075FB95
:1010F00005210C2000F071FB0621032000F06DFBA0
:10110000012000F046FB0E2000F043FB0D2000F014
:1011100040FB032000F03DFBBC707C70FC70284657
:10112000BDE8F883F8B50901840F44EA91041E462E
:1011300020F040450094042A08D13DB934B1254639
:101140000421684601F032F9C049C8700098C6E928
:101150001A50F8BD7FB582B0144602981E46C0F3FF
:101160001201012A19D0022C17D00398C006820B55
:10117000029842EAD0404200032C10D0042C0ED03A
:10118000052C18D141EAC071450800910421684638
:1011900001F00CF9052C05D008E0009100E0009268
:1011A0000025F3E7082102A801F000F986F85A00AB
:1011B0000098C6E9180506B070BD70B50646A64C85
:1011C0000020A64D84F8520021462868052E90F88C
:1011D000880784F85700D1E90E0102D0062E15D0F9
:1011E00031E09D4B3246FFF7B5FF40349A4BD4E9CE
:1011F00000013246FFF796FF9948C0F30E00A08227
:10120000286890F88B076076E9201AE0924B324606
:10121000FFF7A0FF4034904BD4E900013246FFF7BE
:1012200081FF8D480821383001F0C0F88C4901EB6E
:101230008000C0F30E00A082286890F88B076076CB
:10124000ED20A075403CA07880070028286890F821
:10125000BA0701DA20F0030084F8580014F8570F99
:1012600020F00200207079484670BDE870407A484E
:1012700000F084BC79487849006890F8002281F831
:10128000222090F801220A774A88D20504D490F8E7
:10129000022202F00F028A7700F203201A3102784C
:1012A00002F03F024A71B0F801200A80C2788A71C8
:1012B0006C4A0079127800F0F00040EA1210C87110
:1012C00070472DE9FC4705460020634CCDE900003E
:1012D000523406462070614FE12020713968DFF8F2
:1012E000849191F888076071523C012D06D0022D3F
:1012F0002ED0032D42D0042D7DD0D9E0A068C0F3BC
:101300001200CDE9000646083146002000F0D3FC6B
:101310003146012000F0CFFC94F8570020F008007F
:1013200084F857005048C0F30E00A4F85400386801
:1013300099F8002090F8AD1702F00F0201F0F001CB
:10134000114384F8211090F8B40784F8220058E083
:10135000A06AC0F31200CDE900064608314600201D
:1013600000F0A9FC3146012000F0A5FC94F85700DC
:1013700020F0080084F857003C4887E0227BA068F2
:1013800002F01F02C00C40EA4230D20CCDE900024C
:10139000804691F8B40784F822004146022000F00C
:1013A0008AFC4146032000F086FC94F8570008218F
:1013B00040F0080084F857002748103000F0F6FF8E
:1013C0008046A0680821C0F31200CDE900066846F7
:1013D00000F0ECFF244900FB08F001EB4000C0F3F3
:1013E0000E00A4F85400386899F8001090F8AD0782
:1013F00000F0F00000E00FE001F00F01084384F876
:101400002100D4E90201144B2A46FFF7A3FED4E9D8
:101410000401114B2A4649E094F82C10A06A01F00F
:101420001F01C00C40EA4130C90CCDE900018046E3
:101430004146022000F03FFC4146032000F03BFC07
:1014400094F8570040F0080012E00000180910005E
:10145000041000208009100038111000200910002D
:10146000808C0120F607100000800120D08D012023
:1014700084F85700A06A0821C0F31200CDE90006E5
:10148000684600F093FFDA4901EB4000C0F30E001C
:10149000A4F85400FFF7EEFED4E90A01D54B2A4622
:1014A000FFF758FED4E90C01D24B2A46FFF73AFE6B
:1014B0006088410794F8571002D521F0020105E039
:1014C0003A6892F8882702F00202114384F8571014
:1014D000C10705D094F8561041F0020184F8561067
:1014E000800710D4032D0ED0042D0CD0386890F84E
:1014F000BA0700BF84F85800BF484570BD4800F0E7
:10150000F5FABDE8FC87386890F8BA0720F00300C8
:10151000F0E701280AD0032808D0022806D00428C2
:1015200004D0052801D0062801D146E6C9E6704757
:10153000F8B5B14D0746012901D1002028712C7959
:10154000AE4E641C08E000BF56F8242069463846B9
:101550009047012804D0641C072CF5D90020F8BD61
:101560002C719DF80000F8BD70B5017800291CD0E1
:10157000014670229F4801F075FA9F4D6878002857
:1015800013D101219B48FFF7D3FF04000DD09C48E5
:10159000006890F81801000708D500F0BDFB012095
:1015A000A8700A2000F094FA6C7070BD00202870BA
:1015B0002046BDE87040ACE70020704782685203C7
:1015C00005D00078C00702D00120087070470020C5
:1015D0007047826A520306D00078000703D50220C4
:1015E00008700120704700207047037B826803F079
:1015F0001F036FF312021A4306D00078C00703D00E
:1016000003200870012070470020704790F82C30AC
:10161000826A03F01F036FF312021A4306D00078A8
:10162000000703D504200870012070470020704790
:1016300090F83C30826B03F01F031A4306D0007809
:10164000800703D5052008700120704700207047EF
:10165000D0E9102323F070431A4306D000784007E6
:1016600003D5062008700120704700207047002035
:1016700008700120704770B55F4D614C614E68780D
:10168000052807D12068407D420006EB40015E48F6
:1016900001F0E8F9687806280CD12168087D497DB9
:1016A000420000EB410106EB4101BDE870405748A4
:1016B00001F0D8B970BD1FB500F078F901208DF8A0
:1016C0000000534801904F4802904B484849C27867
:1016D00001EB420103910021C17046484168684610
:1016E00088471FBD7FB5FFF7C6FF00214148FFF7C0
:1016F0001FFF10B1FFF70DFF7FBD3F4D002445498F
:101700006C70A42008733E48006890F81801000728
:1017100002D5AC7000F0FBFA2878012810D08DF8C3
:1017200000403B480190374802903148E97800EB8F
:10173000410003902F48EC704168684688477FBDA0
:1017400002208DF80000ECE72D4810B500684FF03E
:10175000000290F818010107274806D58178012971
:1017600007D002290ED0032912D18270BDE81040A3
:10177000A1E70221817000F0D4FABDE810403220C8
:1017800000F0A6B9032181704078BDE81040C0E6A2
:1017900010BD00F01F020121914040094FF0E022EE
:1017A00002EB8000C0F80011704700F01F02012119
:1017B000914040094FF0E02202EB8000C0F8801118
:1017C000704700F01F020121914040094FF0E022D4
:1017D00002EB8000C0F8801270474907090E00280C
:1017E00003DA00F00F000C4A00E00C4A8154704705
:1017F000D08D0120381110001809100098DF00006A
:1018000020091000808C01202C8F01206C8F01207A
:10181000008001200010002014ED00E000E400E052
:101820002DE9F0430024FE4E814625462746002040
:101830009C4206DA00EB060819F804C088F860C07C
:1018400003E000EB060C8CF86070641C401C0F2851
:10185000EEDB501900F01F00084340F0800086F8CE
:1018600035006D1C022DE2DBBDE8F08300B51223CC
:101870001C220021EB48FFF7D3FFEA481E231A463B
:1018800000212430FFF7CCFFE64812231C22402120
:101890001230FFF7C5FF1E23E24840211A464230AE
:1018A0005DF804EBBCE7E0480168DD4801F28771B0
:1018B00018300A7800F8112C4A7800F8102C8A7831
:1018C00000F80F2CCA7800F80E2C0A7900F80D2CBD
:1018D0008A7C4270CA7C82700A7DC2704A7D027125
:1018E0008A7D4271CA7D82710A7EC2714A7E02720D
:1018F0008A7E4272CA7E82720A7FC272CB4A127894
:1019000002738A7F4273CA7F827391F82020C27368
:1019100091F821200274C54A521C12784274552253
:10192000827400F8132F11F8252F4270BF4B4A78AC
:10193000DB1E02F0F0021B7803F00F031A438270E3
:101940008A78C270CA7802710A7942714A798271C2
:10195000B64A921E1278C271B44A521E12780272AE
:101960000A7A42728A7AC272CA7A02730A7B427314
:101970004A7B82738A7BC273CA7B02740A7C42747C
:101980004A7C82748A7CC274CA7C02750A7FA84928
:101990000A701E2200F8132C332048740B20887420
:1019A0007047A44801680029FCD17047A248002272
:1019B0000260A1481C380260A04802610121016157
:1019C000826081600260016002609A49A0F57470D3
:1019D0000B68002BFCD192490B7B43F020030B7367
:1019E0000B7B23F040030B730B7B23F080030B7303
:1019F0000B7B23F020030B73C0F8D823C0F8E0233F
:101A00008F48027070478B48183001680029FCD15C
:101A1000704710B5894800247430046087488030CE
:101A200004608648C4600121C160C4600460016034
:101A300004607B480172017220210173A4210173AB
:101A40007C48183001680029FCD1FFF7AFFFFFF791
:101A50002AFFFFF70BFF7B4804607A4820300460C0
:101A60004FF00050848510BD6D49026E4A73130A11
:101A70008B73130CCB73130E0B7492FAA2F2B2FA9F
:101A800082F24A74426E81F84420130A81F845308C
:101A9000120C81F8462090F85A208A74826ECA741B
:101AA000130A0B75130C4B75130E8B7592FAA2F279
:101AB000B2FA82F2CA75C06E81F84000020A81F85B
:101AC0004120020C81F84220000E81F8430070474B
:101AD0005C4900220A600A06908501200860704770
:101AE0005448001F01680129FCD1704710B5044615
:101AF000FFF7BAFF4E481834401CA18F01804849B7
:101B000094F84020193181F82120474A126802F2E6
:101B1000997253784B7093788B702378CB702388AD
:101B20001B0A0B71A3784B7163881B0A8B71237995
:101B30008B77A3794B77637900F8013CE379CB7716
:101B4000237ACB74637A0B7512780A7094F83E206E
:101B5000427394F83F20543801F8112CA27ACA76C7
:101B6000344A1939121F1368012BFCD190F8610017
:101B70000873BDE8104041F28830A9E710B504466B
:101B8000FFF772FF2A494834491CA089088024487D
:101B9000E27B0272244A126892F89A3783761930EF
:101BA00092F89B3783702378C37123881B0A0372D2
:101BB000A378037363881B0A43732379837763795C
:101BC00001F8013CE379C377237A4375637AC375DF
:101BD000A37B4B73637C543900F80E3C92F8993721
:101BE00023F0070300F81939A37A483CDB0702D039
:101BF00092F8CE2701E094F84E2080F836200D4A66
:101C0000121F1368012BFCD194F8582080F83A2059
:101C100091F861100173BDE8104041F2883057E738
:101C2000001000203804100020091000F9071000EF
:101C300053000020040B00221C0C0022D0030022C1
:101C400019091000200500226149624B0A6892F8C8
:101C5000892702700A681B7892F8AD2703F00F03FA
:101C600002F0F0021A4342700A68B2F8A2274280DA
:101C7000096801F2A7710A8882800A7A82718A7AD9
:101C8000C271497B017270475349027801F80C2CEC
:101C900042780A7682784A734288120A8A730279F5
:101CA0008A748288120ACA7482798A76C2790A771B
:101CB000007AC8777047F0B5122628B1012806D0FF
:101CC00002280AD0454803E04FF4801007E044485A
:101CD000C024414D0023153D03E040480F388024C7
:101CE000F7E7CA070DD0002202EB050C875C8CF8E1
:101CF0006070521C0F2AF7DB03F01F02224385F8A5
:101D000035201E3049085B1CB342EADBF0BD324986
:101D100004201539087370472F492020153908739E
:101D200070472D49C0201539087370472D49002090
:101D30000860704770B52C4C2568002DFCD12A4EE8
:101D40001C361BB101233360002305E03560FBE73F
:101D5000C6185B1C86F880508B42F9D32368002B91
:101D6000FCD102E0C45CD4545B1C8B42FAD370BD3E
:101D700010B500F03AFF1B49002008601B480078AE
:101D8000002810D01848183801680029FCD11248E2
:101D90001538C078400602D5154901200870BDE805
:101DA0001040FFF79FBC10BD10B500F01EFF0D499D
:101DB00000200860BDE81040FFF7C6BC10B500F079
:101DC00014FF084900200860BDE81040FFF7BCBCC4
:101DD00020091000F6071000151000202B0210003B
:101DE0000F001000200500221C0B00221909100012
:101DF00018091000FEE70446012006F026F900212C
:101E00000F20226806F036F901210F20626806F0E3
:101E100031F902210F20A26806F02CF903210F20CE
:101E2000E26806F027F90C210F20226906F022F95A
:101E30000E210F20626906F01DF90F210846A269E4
:101E400006F018F920210F20E26906F013F938484E
:101E5000026821210F2006F00DF93548103802687C
:101E600022210F2006F006F931480C3802682321A0
:101E70000F2006F0FFF82E480838026824210F20B2
:101E800006F0F8F82A48001D026825210F2006F008
:101E9000F1F827483438026826210F2006F0EAF8C6
:101EA00023481438026827210F2006F0E3F8FEF7D4
:101EB00080FC024630210F2006F0DCF8FEE710B56A
:101EC000012805D0022805D0032809D0032102E00B
:101ED000012100E00221BDE81040032006F0B5B862
:101EE0000021032006F0B1F8FEE710B504460146D4
:101EF000042006F0AAF8012C00D1FEE710BD01462F
:101F0000082006F0A2B80146062006F09EB810B5DB
:101F100004460146072006F098F824B1012C03D0AE
:101F2000022C02D1FEE7FEE7FEE710BD0220EEE73D
:101F300038ED00E000F059BE704770471D4810B5FD
:101F4000016821F00401016000F04FFEBDE810407F
:101F5000FEF7FFBD7047704710B500F046FEBDE8C4
:101F6000104005F057BF10B500F03FFEBDE810402F
:101F700006F0A6BA10B500F038FE0F48006890F8D9
:101F80002901800703D5BDE8104005F051BF10BD01
:101F90007047704770477047704770477047704789
:101FA0007047704770477047704770477047704779
:101FB0007047000010ED00E02009100010B542212C
:101FC00088480BF0F7FE87488749018087494180A0
:101FD000874981808749C18087490181874941813B
:101FE000874981818749C181874901828749418227
:101FF000874981828749C182874901838749418610
:10200000874981868749C186874901878749A0F822
:102010004010874801688548B1F89C274280B1F894
:10202000A027C280B1F8A517018110BDF0B585B019
:10203000FF22142168460BF0B5FE6846FEF7F8FE55
:10204000039803250127072645F2AA54A04202D08F
:102050000498A0423AD1DDE90001884206D00299F5
:10206000884203D00198884208D100900498A04289
:1020700010D10098000E012805D007E05FF00000A5
:10208000FFF741FF0FE00098C0F301370098C0F35D
:10209000032602E00120FFF736FF0398A04213D188
:1020A000009800F007056349887920F0F30207F0F3
:1020B000030040EA0610104388715F48017865F319
:1020C0000201017005B0F0BD0220D9E70120FFF741
:1020D0001AFFF9E770B5FEF7CFFBFEF709FD544D87
:1020E00028680078A52802D00120FFF7FEFE53489B
:1020F000006810B10020FFF7F8FE28684FF00006D6
:102100004FF0010490F829118A074FF0085104D5C7
:10211000C1F89863C1F8804301E0C1F8984390F892
:102120002811474A01F00101116090F82811121D91
:10213000C1F34001116043490C60091F0C60091F85
:102140000C6090F8C800C1070BD0810709D5C0F317
:102150008200012805D138483130017821F007018B
:102160000170FEF7D9FDFEF7B1FBFEF76DFF032806
:1021700001D1FFF7A4FEFEF727FDFEF78FFBFEF768
:1021800071FDFFF753FF286890F8290181072E4859
:1021900001D5046000E00660046070BD10B54FF02A
:1021A000005174204881FFF795FFFFF707FF27498B
:1021B0003F20086026490020086027482549016023
:1021C00001F55D6025490860254800F00BFBFEF72E
:1021D00053F800F047F8FEF74DF8FEF7D1F801206C
:1021E00010BD000000000120008001202496012085
:1021F000A4A2012042000120808C0120AE10012009
:10220000EE100120581101209811012028180120FA
:1022100068180120CC0C01200C0D0120A410012015
:10222000D08F0120DA8F0120C20C0120643B100006
:10223000200910000010002020000020C8100022FB
:1022400088040022280A00227C0400225411012064
:102250007C091000281E1000480910004C091000CD
:10226000C83910007FB5FEF763F8204D002400BF89
:1022700005EB441000F11002017F4CCACDE9026168
:10228000CDE900230FC8FEF731FA10B10120FFF7A6
:102290003EFE641C072CEBDB144D002415F1E00519
:1022A00004EB440005EB8001091D55F8200006C928
:1022B000FEF79CF910B10120FFF729FE641C072CE2
:1022C000EEDB0B4D002400BF05EBC400416855F860
:1022D0003400FEF7ABF810B10120FFF718FE641CC4
:1022E000062CF1DB7FBD4068FFF720BEB8DF0000A1
:1022F000ECE000002DE9F0479246012547F6F87220
:1023000056429946AC460024089F16E030F8143037
:1023100031F81480A8EB03031BB29A4200DD1A4681
:102320009E4200DA1E46002B02DA4FF0000502E062
:1023300001DD4FF0000C04F10104BC42E6DB55EA7C
:102340000C0306D0012D01D02DB108E0BCF1010F26
:1023500005D1002203E0BCF1010F00D13246002577
:102360002C462B4611E000BF30F8136031F813C043
:102370001644ACEB060636B24E4505DAC9F1000C40
:10238000664501DD3544641C5B1CBB42ECDB95FB00
:10239000F4F10A44002105E030F8113013442AF822
:1023A0001130491CB942F7DBBDE8F08770B5034630
:1023B00000200246FD4C09E09D5C521C05F00F0612
:1023C00004EB1515A65D2D78304428448A42F3DBD2
:1023D00070BD884200D308467047884200D808463E
:1023E0007047884200D30846904200D31046704799
:1023F0002DE9F047D0F810C00568046A85FB0C127F
:10240000A1FB041242694368914683FB0262826920
:10241000E246A6FB02677618D0E9021781FB07C8DF
:10242000C069ACFB00C81CEB060682FB0A2CA2FBB1
:10243000011280FB0902A0FB0502401884FB071271
:10244000A1FB03120818301A4FEAE071ACE72DE93E
:10245000F04389B0044600680090606801902069EC
:1024600002906068039020690490A069059020693B
:102470000690A0690790E06908900D466846FFF74E
:10248000B7FF8046A0680190E068049060690790FB
:1024900089466846FFF7ACFF064660680190A06871
:1024A000029020690490E0680590A0690790606937
:1024B00008900F466846FFF79BFFC5E90401C5E990
:1024C0000267C5E9008909B0BDE8F0832DE9FF4F37
:1024D0004FF0000A89B09B465746D146D046564633
:1024E00055465446202168460BF086FC0B9810E0B8
:1024F0000999824431F9102000FB00F102FB0166CA
:102500008844414302FB009901FB004417440D44F9
:10251000401C5845ECDD0B99ABEB0100401CCDE9AC
:10252000000ACDE90654CDE90486CDE90279684672
:102530000A99FFF78CFF0DB0BDE8F08F9C48016849
:10254000087B4A7B40EA02208A7B40EA0240CA7B41
:10255000097C40EA026000184941704794480168CC
:1025600008794A794B7A40EA02208A7940EA0240A7
:10257000CA7940EA02600A7A42EA03228B7AC97A6F
:1025800042EA034242EA0161704700B5FFF7D6FF15
:1025900049084FEA30000018494100BD2DE9F34FCA
:1025A00083B00446FFF7F1FFCDE90001FFF7C6FF56
:1025B00081468A4608216846FFF7F8FE4FF000087A
:1025C000DDE9006704EB400B454644462246012006
:1025D00000210BF06BFB03460A46304039400843AC
:1025E0000DD003EA090302EA0A02134306D0049855
:1025F0003BF8152020F8182008F101086D1C641C18
:10260000202CE3DB05B097E7A8E72DE9F34F85B071
:102610000446FFF7BAFFCDE90201FFF7F5FFCDE968
:102620000001FFF79BFF81468A46082102A8FFF7B9
:10263000BDFE054608216846FFF7B8FE00EB4500E1
:102640004FF00008DDE9006704EB400B45464446C7
:102650002246012000210BF029FB02460B463040A8
:10266000394008430DD002EA090203EA0A031A437B
:1026700006D006983BF8152020F8182008F101082C
:102680006D1C641C322CE3DB07B055E72DE9F047E5
:10269000474800252C46006800F5F57890F8E87169
:1026A000AFB190F8E611C90715D000264FF0010927
:1026B00009FA06F0074207D018F806200120002189
:1026C0000BF0F4FA05430C43761C052EF0DB681979
:1026D00044EB040168E690F8E921012000210BF0A9
:1026E000E5FA05460C46F2E72DE9F04730480024AC
:1026F0002546006800F5F57890F8E871FFB190F88C
:10270000E611C90708D090F8E921012000210BF05B
:10271000CDFA04460D4612E000264FF0010900BF35
:1027200009FA06F0074207D018F806200120002118
:102730000BF0BCFA04430D43761C052EF0DB20465B
:10274000294631E670B50022194C012303FA02F63E
:10275000256895F8E851354203D030F8125021F839
:102760001250521C052AF1DB70BD00B5FFF7E6FEE2
:1027700040F0010000BDF1E60E4A520102EB81017A
:1027800001F1085108607047CA0700D00422C0EB6D
:10279000001001EB800000EBD0704FF4801101EBD2
:1027A00060000078D04000F00F0070471CE100008E
:1027B000200910005411012010B5CB0700D00423CC
:1027C000C0EB001001EB800000EBD0704FF48011E3
:1027D00001EB60010F2408789C40A0439A4010430D
:1027E000087010BD2DE9F14F82B04FF4807102984E
:1027F0000BF002FBFFF7B9FF5FEA51094FEA30081F
:10280000FFF7B9FF4FF0000A8B46554600902A4665
:10281000012000210BF04AFA009A01EA0B01104056
:10282000084323D0002601273446224601200021F8
:102830000BF03CFA00EA080001EA0901084310D055
:1028400029462046FFF7A0FFB04208D00299012395
:1028500001EBC70603FA0AF332681A4332600646F0
:102860007F1C641C242CE0DB0AF1010A6D1C3C2D4A
:10287000CDDBBDE8FE8F2DE9F0478246FE480026FD
:102880000121D0F80090324699F814305C1E1FE008
:10289000032099F8158018E0F84D012707FA01F791
:1028A00055F830503D402D000ED0A0F1010500FB41
:1028B000031705FB031C3AF917703AF91C507D1BEE
:1028C00000D56D422E44521C401C8045E4DC491C5E
:1028D0008C42DDDC02B9012296FBF2F064E52DE9C1
:1028E000FF4F85B00021E44C0391029101910091CA
:1028F0002168012B91F8775005F00F0700D10027D0
:102900004E7D91F87A10C7F1100BB14200D20E46FD
:1029100000210123049186E04FF00009C8460324FA
:1029200022E0D6494FF0010C0CFA03FC51F83410A8
:1029300001EA0C01090004FB053130F911C0A4F1D2
:10294000010101FB053130F91110ACEB010106D09A
:10295000002900DA4942DDF818C0A1EB0C0100297A
:1029600000DA49428944641CB442DADB31469EF8FD
:1029700015A022E0C14C4FF0010C0CFA03FC54F8F6
:10298000314004EA0C04240001FB053430F914C082
:10299000A1F1010404FB053430F91440ACEB04044C
:1029A00006D0002C00DA6442DDF818C0A4EB0C0459
:1029B000002C00DA6442A044491C8A45DADC049900
:1029C000012910D10199B1EB090101D5C1F1000133
:1029D000039C214403910099B1EB080100D54942C1
:1029E000029C21440291CDE900899EF87B10994216
:1029F00016D11168039D79430BFB0511CC1701EB30
:102A00001471091111609168029D79430BFB051146
:102A1000CC1701EB1471091191600021039102910F
:102A200001215B1C04919449D1F800E09EF81450F8
:102A3000691E99423FF770AF5068039B78430BFBC8
:102A40000300C11700EB117000115060D068029BA9
:102A500078430BFB0300C11700EB11700011D0602D
:102A600009B069E504E000BF11F8013B00F8013B43
:102A7000521EF9D299E67FB50E460446FFF785FD52
:102A8000CDE90001FFF7C0FDCDE90201DDE900015C
:102A900049084FEA3000CDE900014FF008016846CF
:102AA000FFF784FC0546082102A8FFF77FFC2844B5
:102AB000820021463046FFF7D5FF7FBD0B466E49A9
:102AC00009684A7D097D521C4A4301465200184656
:102AD000C8E770B5044670210BF08EF90020207015
:102AE00060806060FFF741FEC4E90201FFF743FE2A
:102AF000634DC4E90401604E68882083306800F2A9
:102B00009E7001886183417E217790F82A10617759
:102B1000017EA177817EE177817B84F8201059497D
:102B2000C07B097800F0F00001F00F01084384F841
:102B30002100FFF7ABFDC4E90A01FFF7D5FDC4E9A9
:102B40000C01FFF722FDC4E90E01FFF75DFDC4E9AA
:102B50001001E888A4F84800A4F84A00306800F2A0
:102B6000AE70C17E84F84C10417F84F84D10817F97
:102B700084F84E10017F84F84F10017884F85010CB
:102B8000817884F85110007B84F8580070BD3F2193
:102B9000B0FBF1F13F314908B0FBF1F211444908B3
:102BA000B0FBF1F008444008FFE510B50446FDF71E
:102BB00063FB012C09D13048006890F818014007E8
:102BC00003D531480078052803D0FDF75DFE30B10C
:102BD00007E0FDF759FE20B1FDF752FE01E0FDF7D9
:102BE0004BFEBDE81040FDF745BB0020DDE7224B62
:102BF00010B51A68947E640704D5D28A0468A2EBE3
:102C0000040202601A68947EA40703D5128B0C6834
:102C1000121B0A600268002A00DA002202601C68A7
:102C2000E48AA24200DD224602600A68002A00DA35
:102C300000220A601C68248BA24200DD22460A6042
:102C40001B689B7EDB0702D003680B60026010BD2F
:102C5000F0B500252C4608E031F9146030F9147005
:102C6000F61B964200DD6D1C641C9C42F4DB022DB9
:102C70000CD90120F0BD000020091000C839100057
:102C8000643B1000F6071000740910000020F1E703
:102C90002DE9F04F9246DDE909B7012547F6F872B4
:102CA00056429946AC46002417E000BF30F8143075
:102CB00031F81480A8EB03031BB29A4200DD1A46D8
:102CC0009E4200DA1E46002B02DA4FF0000502E0B9
:102CD00001DD4FF0000C04F10104BC42E6DB55EAD3
:102CE0000C0306D0012D01D02DB108E0BCF1010F7D
:102CF00005D1002203E0BCF1010F00D132460025CE
:102D00002C462B4611E000BF30F8136031F813C099
:102D10001644ACEB060636B24E4505DACBF1000C94
:102D2000664501DD3544641C5B1CBB42ECDB95FB56
:102D3000F4F10A44002105E030F8113013442AF878
:102D40001130491CB942F7DBBDE8F08F10B50146E0
:102D50001022F948FFF786FEBDE810404FF40061ED
:102D60000120FDF783BB70B59EB006460D461446A4
:102D70006846FFF7AEFE14F0050F02D001208DF873
:102D80000000EE4814F0180F09D0016891F8E8111E
:102D900029B19DF8001041F008018DF8001040F6AF
:102DA000E2510C4219D0026892F85001C0070ED1CE
:102DB00092F8040358B992F8E002C00707D192F8DC
:102DC0006002C00703D192F8B001C00705D09DF89A
:102DD000000040F006008DF80000ADF84A50ADF854
:102DE0001860ADF84850AFF29B00D34D03244FF468
:102DF000006601906846FEF7B7FB1CAB0022314627
:102E00000120FDF782FB31460120FDF75DFB2878AC
:102E1000002804D0FFF753F8641E002CEADC1EB033
:102E200070BD10B50446C00709D04FF44861C448CE
:102E30000AF0C0FFC348002101604160018114F025
:102E4000420F07D04021C0480AF0B4FF6421BF48B8
:102E50000AF0B0FFA0060BD54FF48071BC480AF011
:102E6000A9FFBDE810404FF4C871BA480AF0A2BFEC
:102E700010BD2DE9F0410746B048006890F82010D9
:102E8000490710D590F821000125C0F301108540B5
:102E90000024B14E05E0F18870883A46FFF763FFE1
:102EA000641CAC42F7DBBDE8F0812DE9FF4F8BB02D
:102EB0000446FFF760FCCDE90801FFF756FCCDE9B9
:102EC0000601082106A8FFF771FA0546082108A89F
:102ED000FFF76CFADFF864A245434FF0010BDAF814
:102EE00000004FF4DD5190F8210000F007070BFAC5
:102EF00007F99A480AF080FF142168460AF07CFF1F
:102F000000263FE094482246C1880C98FFF72BFF2B
:102F100014F0050F12D088489149406804F076FB00
:102F20008F4A00208D4907E051F8203032F910C057
:102F3000634441F82030401CA842F5DBDAF8000079
:102F400090F8E801E8B114F0140F1AD07A488549D6
:102F5000C068FFF7F7FBDAF80010824B002091F809
:102F6000E82169460BFA00FC12EA0C0F06D051F872
:102F700020C033F91080C44441F820C0401C05280B
:102F8000F0DB761C4E45BDDB14F0050F0BD00020A6
:102F9000724A06E052F820100D9B394123F81010B8
:102FA000401CA842F6DBDAF80000514690F8E80130
:102FB000002815D014F0140F12D000205A466C4689
:102FC0000B6802FA00F593F8E8312B4205D054F86B
:102FD00020300E9D3B4125F81030401C0528EFDBCA
:102FE0000FB0BDE8F08F2DE9F74F544D84B09046F7
:102FF000286890F85011C9070ED190F8041359B9F8
:1030000090F8E012C90707D190F86012C90703D100
:1030100090F8B001C00763D0FFF7B7FACDE900011F
:10302000FFF7F2FACDE9020108216846FFF7BEF981
:103030000446082102A8FFF7B9F920444400286893
:103040000126A94690F8210000F00707BE40A10024
:1030500042480AF0D1FE0025DFF800A1DFF8F8B001
:1030600017E000BFDDE90421BBF80200FFF77BFE9B
:10307000314851468268002008E000BF51F82030F6
:1030800032F910C0634441F82030401CA042F5DB07
:103090006D1CB542E6DB314D0021524606E000BF13
:1030A00052F82100384125F81100491CA142F7DBF4
:1030B000D9F8000090F85011C90703D190F8B00179
:1030C000C0070DD0049810F0220F09D02846D8F878
:1030D0000010FFF763FA2846D8F80410FFF795FAB6
:1030E00007B07EE72DE9F0479A46144B8946002148
:1030F0000125174E1C6818E032F8113030F81170B5
:10310000DB1B1FB2002308E006EB831C5B1C3CF8B2
:1031100011801BB2B8442CF8118094F880C305EBE1
:103120009C1C9C45F0DC491C09B2637D8B42E3DCAE
:103130000020084A35E00000B453100020091000B8
:1031400042000120C20C0120CC0C01200C0D0120FA
:10315000140E0120140F0120643B1000281E1000E3
:10316000A8111000A41001203AF8103039F81010FE
:10317000591A0BB200210CE001EBC10606EB011657
:1031800002EB8606491C36F8107009B21F4426F877
:10319000107094F8806305EB96168E42ECDC401CB0
:1031A00000B2217D8142DFDCBDE8F0872DE9F047E8
:1031B000B34D824686B0296800F4126091F88013FE
:1031C000490728D5002826D00024DFF8B882DFF888
:1031D000B892012718E000BF00EB44001421B0F8BA
:1031E000B26368460AF008FE08EB8410009004EB16
:1031F000C40000EB041109EB810001906A463146DE
:103200005046FFF7F0FE641C286890F8801307EB27
:103210009111A142E0DC06B0C6E7F0B540F2824170
:1032200085B010EA010535D000F412639448974A3E
:1032300000240068D688012190F8802301EB9211C8
:1032400007E000BF00EB4407B7F8B273BE4202D0FC
:10325000641CA142F6DCA1421EDD51071CD5DBB186
:1032600090F85011C90703D190F8B001C00711D0F0
:103270008448402200EB84118548FFF7F3FB04EB00
:10328000C400814900EB041001EB800164228148F5
:10329000FFF7E8FB05B0F0BD142168460AF0ACFD6D
:1032A0007B4800907B4801906A4631462846FFF7EC
:1032B0009AFEEFE770B506460020FDF7C2F903203D
:1032C000FDF7BFF916F040040AD040227049724859
:1032D000FFF7C8FB704864226E494030FFF7C2FB1D
:1032E0003046FFF79EFD6D480178012904D1002189
:1032F00001703046FFF7BDFD3046FFF757FF16F06F
:10330000110506D06148664B664A41882846FFF79A
:10331000CCFDE8075A4D0FD0286890F82000000730
:103320000AD56048FFF7A7FA5F4901235F4A0860A2
:1033300001465C48FFF7D3FA3046FFF76EFF5CB1F9
:10334000286890F88003400706D55349514B504AEE
:1033500040315148FFF7C6FE5549012008705549D4
:10336000087004F047FD0020FDF786F9BDE87040C5
:103370000320FDF781B92DE9F04141490025414A7B
:103380000968414EB1F8B23383421AD291F88033C2
:103390009C0901EB4407B7F8B27387420AD90124AC
:1033A00004EB931713E000BF01EB4403B3F8B2330F
:1033B000984201D1254602E008D2A4F10105A542B8
:1033C0001ED191F85001C00708D103E0641CA74248
:1033D000EADCF6E791F8B001C00750D002EB8511A6
:1033E00040222B48FFF73EFB05EBC50000EB051024
:1033F00006EB8001BDE8F04164222648FFF732BBAE
:1034000001EB4405B5F8B033B5F8B253C01A000269
:10341000EB1A90FBF3F391F85001C00703D191F838
:10342000B001C0072BD01A4D002002EB841100BF61
:1034300001EB400231F9107032F9402CBF1A5F43A2
:1034400002EB272225F81020401C2028F0DB04EB9B
:10345000C401104D01EB0411002006EB810100BFF7
:1034600001EB400232F9644C31F91020121B5A432F
:1034700004EB222225F81020401C3228F0DB12E554
:1034800020091000140E0120140F0120643B1000CD
:10349000CC0C01200C0D0120105310002809100045
:1034A000C20C01204200012050091000C83A10004F
:1034B000360910007009100010B501461022FE48B0
:1034C000FFF7D0FA8021BDE810400120FCF7CEBF05
:1034D00030B59DB004466846FFF7FBFA0021012C89
:1034E00004D0032C04D0022C0AD01BE0012000E001
:1034F00008208DF81E108DF800008DF81D1011E0C9
:103500008DF84E108DF84D10EC4906208DF8000016
:10351000D1E9062092184041CDE90E20D1E90802F8
:10352000CDE91002BDF80200AFF2730140F48670DD
:10353000E14D0191ADF8020003246846FEF714F84E
:103540001CAB002280210120FCF7DFFF802101203D
:10355000FCF7BAFF2878002804D0FEF7B0FC641E00
:10356000002CEADC1DB030BD2DE9FC5F002000908E
:10357000FFF78CF804460D46FFF7B6F88846D049A9
:1035800007464FF00000086048600881CD495FEAB7
:10359000550B4FEA340A0860486008814FEA000979
:1035A0004FF00300FFF794FFC34800242646C0688D
:1035B00001903246012000210AF078FB00EA0A005F
:1035C00001EA0B0108433CD000252A4601200021D6
:1035D0000AF06CFB384001EA080108432ED0BA48D3
:1035E000006890F8E8110120A040014226D0294649
:1035F0003046FFF7C9F8B449DFF8C4C209683CF99E
:103600001430B1F83421991A019B33F91430A3EB2B
:10361000020200D54942002A00DA5242914204DBFC
:10362000A8492CF8143021F814000F2805D2401CAA
:10363000C2B229463046FFF7BFF8641C6D1C3C2D12
:10364000C3DB761C242EB4DB09F10109B9F1100F9C
:10365000A6DB0320FFF73CFF002635462A46012063
:1036600000210AF023FB00EA0A0001EA0B010843EB
:1036700020D0DFF8549200242246012000210AF0D5
:1036800015FB384001EA0801084310D0D9F80000C2
:1036900090F8E8110120B040014208D08948214645
:1036A00010F81600C2B22846FFF786F8761C641C94
:1036B0003C2CE1DB6D1C242DD0DB0320FFF708FF41
:1036C0007D488249C068FFF73DF87F4A00207F4B64
:1036D0001268012140F6FF7592F8E82101FA00F422
:1036E000224209D033F91040002C01DDAC4203DB4B
:1036F00001200090BDE8FC9F401C0528EEDB0098EF
:10370000F8E72DE9F05F70490A6892F83001050684
:103710006F48037803F00F0407D492F83E1121F0AC
:103720000F0121430170BDE8F09F0025DFF888A15B
:10373000834604702E46012789460320FFF7C8FE02
:103740006249DAF80C00FEF7FDFFD9F800205F4B64
:10375000002092F8E81100BF07FA00FC11EA0C0FF4
:1037600005D033F910C0B2F84D81C445DBDB401CF5
:103770000528F1DB0F2DD6D26D1CEDB244EA051001
:10378000761C8BF80000102ED7DBCCE72DE9FC5F10
:10379000FEF7EBFF04460D46FEF7EDFF07468846B1
:1037A0005FEA550B4FEA340A4FF4486149480AF082
:1037B00001FB00204FF0240900900120FFF788FE54
:1037C0003D480026406801903F480068057D40E084
:1037D0003246012000210AF069FA00EA0A0001EAF3
:1037E0000B01084334D000242246012000210AF0B6
:1037F0005DFA384001EA0801084326D021463046E8
:10380000FEF7C2FF3049DFF8CCC009683CF915303B
:10381000B1F83421991A019B33F91530A3EB020258
:1038200000D54942002A00DA5242914204DD2A4979
:103830002CF8153021F815000F2805D2401CC2B213
:1038400021463046FEF7B8FF6D1C641C3C2CCBDBD8
:10385000761C4E45BCDB0098401C00901028ACDB69
:103860000120FFF735FE184800250068067D2A462E
:10387000012000210AF01AFA00EA0A0001EA0B010D
:10388000084316D000242246012000210AF00EFA37
:10389000384001EA0801084308D00F48214610F8D3
:1038A0001600C2B22846FEF787FF761C641C3C2C2B
:1038B000E9DB6D1C4D4511E0C45310008809100070
:1038C000D08F0120DA8F012020091000A4100120E0
:1038D000F607100024960120A4A20120C7DBBDE852
:1038E000FC5F0120F4E52DE9F05FFE4A116891F8D4
:1038F0003001C407FC48037803F0F00514D00570CC
:1039000000264B7D0C7DDFF8E4A35B1CB04691469E
:1039100004FB03F783460120FFF7DAFD2046DAF8BF
:103920000420D9F800100EE091F83E1101F00F01CB
:1039300029430170F7E600BF32F91030B1F832C107
:103940006345F7DB401C8742F6DC0F2EF2D2761C73
:10395000F6B245EA060108F101088BF80010B8F14B
:10396000100FD8DBDFE610B54FF487614FF48010FD
:103970000AF042FAFFF7B7FFFFF708FFD94C2068BB
:1039800090F8E80118B1FFF7BCFEFFF7EDFDD6484F
:103990002268401D017892F8FB2701F0F00102F047
:1039A0000F0211430170D248FEF71CFFBDE8104022
:1039B000012004F021BC2DE9F047FEF767FE8146A7
:1039C0008846FEF791FE06460F4600252A4601204E
:1039D00000210AF06BF900EA090001EA0801084336
:1039E00011D000242246012000210AF05FF9304066
:1039F0003940084304D0002221462846FEF7DCFE69
:103A0000641C3C2CEEDB6D1C242DDFDBBDE8F08755
:103A100010B5D124FFF7CFFFB248006890F8E80155
:103A200028B1FFF76EFEFFF79FFD44EA00442046F1
:103A3000BDE8104004F0E0BB2DE9F05FDFF8B48290
:103A4000A8480025D8F80CA0D8E90667D0F800905F
:103A50002C4640F6FF7B2246012000210AF026F981
:103A600030403940434608431CD03AF9150028B18C
:103A7000584507D1186840F0100011E0186840F070
:103A800020000DE0B9F83621B9F8411102EB010C24
:103A9000844502DB511A814203DD186840F0400082
:103AA00018606D1C641C402CD5D300251E6AD8F804
:103AB00010A0D8F824702C462246012000210AF0DC
:103AC000F5F830403940424608431DD03AF9150018
:103AD00028B1584507D1106840F0100011E0106877
:103AE00040F020000DE0B9F83A11B9F8433101EB8C
:103AF000030C844502DBC91A814204DD106840F0E2
:103B00004000C8F800006D1C641C402CD4D30AE6A9
:103B10002DE9F047DFF8DC910024DFF8DCA1D9E9DA
:103B20000678254626463246012000210AF0BEF8D6
:103B3000384001EA08014A46084304D01AF8060052
:103B4000A04200D90446761C402EECD3DFF8A8A191
:103B5000D2F82080D9F824700AF1240A00263246CF
:103B6000012000210AF0A2F800EA080039400843C9
:103B700004D01AF80600A84200D90546761C402E4B
:103B8000EDD3594E5B4BF61C721C3470D01E157071
:103B900000781B680119901EFF27007843F080030E
:103BA0002844814207D2401A2044FF2801D83070AF
:103BB0002CE7377008E08842FAD2081A2844FF2818
:103BC00001D8107022E71770C9F800301EE72DE900
:103BD000F84F4948DFF82091804609F12409602117
:103BE0000AF00AF9FFF794FFFDF75DFEFDF73EFED0
:103BF00004200324DFF8FCB0002600900220FFF729
:103C000067FCE0072DD04FF0000A574655462A467C
:103C1000012000210AF04AF8DBE9063C184001EADD
:103C20000C01084315D0DBF80C0030F917102D48B3
:103C30000068B0F8380181420ADA18F805000099E6
:103C40004FF0010A0844FF2800DDFF2008F80500B6
:103C50007F1C6D1C402DDAD3BAF1000F01D124F086
:103C60000104A0072DD54FF0000A574655462A46B5
:103C7000012000210AF01AF8DBE9083C184001EAAB
:103C80000C01084315D0DBF8100030F91710154867
:103C90000068B0F83C0181420ADA19F80500009981
:103CA0004FF0010A0844FF2800DDFF2009F8050055
:103CB0007F1C6D1C402DDAD3BAF1000F01D124F026
:103CC000020444B1FFF724FFFDF7EDFDFDF7CEFD43
:103CD000761C642E92DB032400260220FFF7F8FBFB
:103CE000E0070BE020091000F6071000C453100095
:103CF000C839100088091000380410002AD04FF08D
:103D0000000A574655462A460120002109F0CEFFF9
:103D1000DBE9063C184001EA0C01084312D0DBF84D
:103D20000C0030F9171096480068B0F8380181424D
:103D300007DD18F8050020B1401E4FF0010A08F811
:103D400005007F1C6D1C402DDDD3BAF1000F01D1A1
:103D500024F00104A0072AD54FF0000A5746554623
:103D60002A460120002109F0A1FFDBE9083C1840A8
:103D700001EA0C01084312D0DBF8100030F91710EB
:103D80007F480068B0F83C01814207DD19F8050062
:103D900020B1401E4FF0010A09F805007F1C6D1C80
:103DA000402DDDD3BAF1000F01D124F00204002C24
:103DB00008D0FFF7ADFEFDF776FDFDF757FD761C49
:103DC000642E8ADBBDE8F88F2DE9F0476C4A0024A9
:103DD0006C4D106890F830118B07214602D50124F4
:103DE000297002E090F83F312B70914690F8302115
:103DF000654E520703D544F00204317002E090F89A
:103E000040013070002C6CD06021604809F0F4FF54
:103E10005D49FF20891C0870491E0870FDF726FDCA
:103E2000FDF741FDDFF868814FF0100A00270220FE
:103E3000FFF74EFBE00723D0D8E902C3002001467C
:103E400006E000BF33F91120824200DD1046491C14
:103E50006145F7DBD9F80010B1F83621824202DA69
:103E60002878401E08E0B1F84B11814206DB287823
:103E70005044FF2800DDFF20287001E024F00104F9
:103E8000A00725D500200146D8F804C0D8F8103086
:103E900006E000BF33F91120824200DD1046491CC4
:103EA0006145F7DBD9F80010B1F83A21824202DA15
:103EB0003078401E08E0B1F84B11814206DB3078C3
:103EC0005044FF2800DDFF20307001E024F00204A0
:103ED000002C06D0FFF71CFEFDF7E5FC7F1C202F11
:103EE000A5DB93E570B52A4C00202060FEF74DFB62
:103EF000C4E90601FEF788FBC4E90801D4E906100D
:103F000040084FEA3101C4E906104FF0080104F1FE
:103F10001800FEF74BFAA060082104F12000FEF71C
:103F200045FA60600220FFF7D3FA1A48A16880685A
:103F300000EB4102E260626802EB410100EB4100EC
:103F40002061FFF741FF0E4D286890F83001800690
:103F500001D5FFF73CFEFFF76FFDFDF7A4FC0A4813
:103F60002968C01C027891F8FB1762F30301017005
:103F70002068BDE8704040F0020004F03DB9000048
:103F800020091000F7071000F8071000380410008F
:103F900088091000C453100010B5014610227A4859
:103FA000FEF760FD8021BDE810400120FCF75EBAFD
:103FB0002DE9F041754D80460C4628689EB090F87A
:103FC000B10000F00F024FF0FF30521C014609F023
:103FD0006DFEC643CF436846FEF77BFD01208DF89A
:103FE0000000ADF80240286800F5867001788DF871
:103FF0001C1044F00501ADF80210CDE90267ADF8E0
:104000001880AFF26B01019141788DF81F10807814
:104010005D4D8DF8200003246846FDF7A5FA1CAB22
:10402000002280210120FCF770FA80210120FCF79A
:104030004BFA2878002804D0FDF741FF641E002CBD
:10404000EADC1EB0BDE8F0812DE9FF5F4FF6FF7698
:104050004FF0000A93460F46804634465546DFF837
:104060002C911BE038F815005146FFF7A1FF464898
:10407000406807F057FED9F8001091F80B2112F0B4
:104080000F0100D1012112094243B2FBF1F080B2CD
:10409000A04202D238F8156004466D1CBD42E1DB37
:1040A000ABF8006003980480BDE8FF9F2DE9F04164
:1040B000364E05468846306888B090F8D12002F028
:1040C0000F01C2F30214491C641C0A2900DD0A21F5
:1040D000022C00DD0224D23006AB05AAFFF7B4FFA4
:1040E000326892F8D00080071BD5BDF8146001211A
:1040F000E632ADF8006000204FF4803C6F4607E0E8
:1041000013563344634502D227F81130491C401C32
:10411000A042F5DB002904DD06AB05AA3846FFF70F
:1041200093FFBDF814002880BDF81810A8F80010FF
:1041300008B087E77CB50020FCF783FA144C01A98E
:1041400068466588FFF7B2FF10480068B0F8FA10BB
:10415000BDF80400814201D9218000E02080BDF833
:10416000000060800020FCF787FA0A4901200870EF
:104170000949087009490870BDF80020294609203E
:1041800004F060F87CBD0000D4531000200910003A
:10419000643B1000360910007009100082091000FD
:1041A0002DE9F04101788C4C01B1217001461022BB
:1041B0008A48FEF757FC89488A49894B8568086810
:1041C000427D60684243002006E000BF35F8106081
:1041D0001718401C23F817600E68767D8642F5DCC0
:1041E00060680122401C6060096891F8B11002EB20
:1041F0001111884205DABDE8F04178487038FDF7C2
:10420000B3B9BDE8F04180210120FCF72FB92DE9B9
:10421000FF4F4FF6FF74002581B08A46A046A9469D
:104220006D4EDFF8C0B155E06C487038FEF751FCB8
:104230006A48022170380170019931F81510A0F810
:104240004810418841F004014180AFF2AB01416068
:10425000DBF80010032701F2C9310A7880F84C20FE
:10426000CA7880F84E204A7880F84F20897880F804
:104270005010C6F8049000BF584886F80090703877
:10428000FDF772F96B46002280210120FCF73DF911
:1042900080210120FCF718F9307820B1FDF70FFEDE
:1042A0007F1E002FE8DC4E4802F05DFCDBF80010BA
:1042B00091F8C82312F00F0100D1012112094243E5
:1042C00090B2B0FBF1F0A04203D20199044631F85C
:1042D00015806D1C5545A7DB0399A1F80080049853
:1042E000048005B0BDE8F08F2DE9F0413D4D064654
:1042F000884628688CB000F2823C00F2963790F82D
:10430000810300F00F01C0F30214491C641C0A2948
:1043100000DD0A21022C00DD02240AAB09AA604656
:10432000FFF775FF286890F8800380071AD5BDF85D
:1043300024300121ADF8003000204FF4803C6D4660
:1043400007E03A561A44624502D225F81120491C6A
:10435000401CA042F5DB012904DD0AAB09AA28466E
:10436000FFF755FFBDF824003080BDF82810A8F8ED
:1043700000100CB0BDE8F0817CB50020FCF761F9BD
:10438000194C01A96846E588FFF7AEFF154801689A
:10439000BDF80400B1F8AC23824201D9A28000E04C
:1043A000A080BDF80000E0802081854205D091F812
:1043B0008013490701D5FEF7DEFF0C490120087084
:1043C0000B4908700020FCF757F9BDF8002029467A
:1043D0000A2003F037FF7CBDB009100058541000CC
:1043E000A4A2012020091000643B1000360910002F
:1043F000700910002DE9F041174604460D460026CD
:1044000009E0E00703D03146384603F053FE761C3E
:104410006D084FEA340454EA0500F2D1BDE8F0819A
:104420002DE9F04116461F4680464FF0FF35002427
:1044300022460120002109F039FC30403940084370
:1044400004D06D1C454501D12046E7E7641C402C93
:10445000EED30020E2E72DE9F0410F4606460A467A
:10446000F44D0120002109F021FCA5F180040F2E5C
:1044700019D2DFE806F0BF7F900819BFBF2A3B4C76
:104480005D6EA1A8AF00D5E902233846FFF7C8FF4B
:1044900002460120002109F009FCD4E90C23104355
:1044A0001943C4E90C01A5E0D5E904233846FFF718
:1044B000B7FF02460120002109F0F8FBD4E91823D8
:1044C00010431943C4E9180194E0D5E902233846A2
:1044D000FFF7A6FF02460120002109F0E7FBD4E91F
:1044E0000E2310431943C4E90E0183E0D5E90223EA
:1044F0003846FFF795FF02460120002109F0D6FB60
:10450000D4E9102310431943C4E9100172E0D5E93E
:1045100004233846FFF784FF02460120002109F0FA
:10452000C5FBD4E91C2310431943C4E91C0161E015
:10453000D5E902233846FFF773FF02460120002128
:1045400009F0B4FBD4E9122310431943C4E9120162
:1045500050E0D5E904233846FFF762FF0246012008
:10456000002109F0A3FBD4E91E2310431943C4E939
:104570001E013FE0D5E902233846FFF751FF02460E
:104580000120002109F092FBD4E90A2310431943CA
:10459000C4E90A012EE0D5E904233846FFF740FFBD
:1045A00002460120002109F081FBD4E916231043C3
:1045B0001943C4E916011DE0D4E91423104319433B
:1045C000C4E9140116E0D5E9002310431943C5E9F5
:1045D00000010FE0D5E904233846FFF721FF02462A
:1045E0000120002109F062FBD4E91A23104319438A
:1045F000C4E91A012068401C20600FE710B501468D
:1046000010228D48FEF72EFA8021BDE810400120CF
:10461000FBF72CBF70B5FDF7A1FF04460D46FEF772
:1046200063F82043294370BD70B5FDF787FF4D083F
:104630004FEA3004FEF72AF849084FEA300040EA12
:10464000040041EA05010018494170BD2DE9F35FFE
:1046500083464FF0FF37FFF7E7FF81467548002498
:1046600080388846D0F804A02546264632460120E8
:10467000002109F01BFB02460B4600EA090001EA93
:104680000801084300D07F1C5F4514D10198012820
:104690001CD029EA020428EA0305122E09D9A6F142
:1046A00012020120002109F001FB29EA000428EA96
:1046B0000105B2462026761C202ED7D35D48294618
:1046C0008038C0F804A02046BDE8FC9F14461D4673
:1046D000122EEED9A6F112020120002109F0E6FA0D
:1046E00004430D43E5E72DE9F34FA1B004466846C6
:1046F000FEF7EFF91CA8FDF7A7FAFFF795FF0246B2
:104700004C4E48084FEA3201C6E90210FFF782FF1B
:104710004A4D4FF00C084FF020094FF0400A4FF07F
:10472000910B012CC6E904010DD00627022C2AD0DA
:10473000032C31D0042C35D00A2C55D0062C5ED059
:10474000082C7DD08FE0FEF710F8CDE90201FEF7CE
:1047500012F80122CDE904018DF80020ADF818808F
:104760008DF81F903C228DF81CA08DF820B0ADF87C
:104770001A20DDE9023252084FEA3303C6E9040188
:10478000C6E902326FE0FFF74FFFCDE90E01FFF7F8
:1047900041FFCDE910010FE0FFF73CFFCDE910012B
:1047A000012104E0FFF736FFCDE910010021229836
:1047B000FFF74CFFCDE90E018DF80070286800F579
:1047C0005A7081788DF84C10C1788DF84F100178AF
:1047D0008DF8501041788DF851108188ADF848104F
:1047E0000089ADF84A003EE0FFF71EFFCDE90E015B
:1047F000FFF710FFCDE910018DF8007033E0FFF7EF
:1048000013FFCDE90E01FFF705FFCDE910018DF88B
:104810000070286800F2613081788DF84C10C17802
:104820008DF84F1001788DF8501040788DF85100B8
:1048300019E005E0380A1000685410002009100043
:1048400008208DF80000ADF81880DDE90A018DF828
:104850001F908DF81CA08DF820B0C6E90201DDE99B
:104860000C01C6E904010020BDF802108DF84E00CD
:104870008DF81D0041F008018DF84D008DF81E00E7
:10488000ADF80210AFF28B2103260191012C12D05A
:10489000092C23D00A2C21D08DF876008DF87800D1
:1048A0008DF87700022C10D0032C0ED0042C0CD0E5
:1048B000052C0AD012E0296891F8891741F003010C
:1048C0008DF870108DF87100E6E72868B0F86E1367
:1048D000ADF87210B0F87203ADF874001CA8FDF7C3
:1048E000D3F9FE4C6846FCF73FFE1FAB0022802147
:1048F0000120FBF70AFE80210120FBF7E5FD20786F
:10490000002804D0FDF7DBFA761E002EEADC23B087
:10491000BDE8F08F2DE9FF5F00210120FFF7E3FEE6
:10492000EE48D0F80490FDF720FFCDE90201FDF735
:1049300022FFCDE90001082102A8FDF737FD074657
:1049400008216846FDF732FD06460020CDE900004B
:104950000546DFF88CB358E0E2484FF00008C24645
:10496000D0E904232846FFF75BFD02460120002121
:1049700009F09CF9DB4A803AD2E91C321840114018
:10498000084341D1012430E004FB0651DBF800006C
:1049900039F9112090F86703B2EB001F24DA08F10F
:1049A0000108BAF1000F00D1A2467A1E94421BD131
:1049B000B8F1010F18D1721E954204D1611E012079
:1049C000FFF749FD0EE009EB4101B1F90220B2EB1E
:1049D000001F05DB35B131F9021CB1EB001F01DA14
:1049E000002000E002208046641CBC42CCDBA7EB28
:1049F0000A01414508D829460220FFF72CFD012075
:104A0000009AA840104300906D1CB542A4DB01251C
:104A100051E000BF4FF0000A544642E0DFF8C48284
:104A20000021A8F18008D8E91C02D8E918C340EA9F
:104A30000C001A4310431FD0AA48D0E90423204693
:104A4000FFF7EEFC02460120002109F02FF9434652
:104A50000246D3E91C8C8E4600EA080001EA0C01EC
:104A6000084306D1D3E9181C0A400EEA0C000243A1
:104A700001D0012100E0002105FB0642DBF8000027
:104A800039F9122090F86703B2EB001F08DA39B940
:104A90000120009AA0401040000001D10AF1010A53
:104AA000641CB442BADBBAF1000F03D0691E0120C6
:104AB000FFF7D1FC6D1CBD42ACDBBDE8FF9F2DE9CB
:104AC000F04781468748DFF820824FF0FF35D0E974
:104AD0000467002422460120002109F0E7F8304055
:104AE0003940084307D06D1C4D4504D118F8040027
:104AF000103008F80400641C402CEBD3BDE8F047EC
:104B0000FCF7B4BE2DE9F04781467648DFF8D8813E
:104B10004FF0FF35D0E90467002422460120002130
:104B200009F0C4F830403940084307D06D1C4D45AA
:104B300004D118F80400103808F80400641C402C54
:104B4000EBD3BDE8F047FCF791BE2DE9F041654C91
:104B50000020803CA061FFF767FD644DC5E90001BE
:104B6000FFF758FD624AC2E90001D5E90001490892
:104B70004FEA3000C5E900014FF008012846FDF773
:104B800015FC5C4D082128605948FDF70FFC5A4E72
:104B900030600220FEF79CFC5848594A296880681A
:104BA00000EB410313603368564A03EB410100EB0D
:104BB00041001060FFF708F9FFF709F8FCF773FEF2
:104BC000022003F019FB50480178EF2902D9002197
:104BD000102016E010310170FCF765FE00210A205C
:104BE000FFF781FD3D4F00204FF47A68BA68A36853
:104BF00061690BE01D1832F91550454505DD0021AE
:104C00000F20BDE8F04103F055BA401C8842F1DBAB
:104C100000253BE02846FFF752FF002D02DD681E0D
:104C2000FFF770FF00210A20FFF75DFD0026B8683E
:104C300028E0AE4225D0A168314430F91110414539
:104C40001FDD2846FFF75EFF3046FFF738FF0021E3
:104C50000A20FFF748FDA168B868294430F911001F
:104C6000404503DD31460E20FFF7F5FB3046FFF7E8
:104C700049FF2846FFF723FF00210A20FFF733FDF5
:104C8000B868761C61698E42D3DB6D1C8D42C1DB36
:104C9000B3E42DE9F04700252E4629460820FFF70A
:104CA00022FD0E480E4C0021C76820684FF0010815
:104CB00000F5F57990F8E82108FA01F31A4208D0D6
:104CC00037F9113090F87DC3B3EB0C1F00DA6D1C7F
:104CD000761C491C0529EFDBB54217E0685410002B
:104CE00020091000380A10005C041000A009100010
:104CF000A8091000900910008C091000C45310007E
:104D00009409100098091000FA0710000CD190F8CF
:104D1000E611C90790F8E91101D00D2000E00C2040
:104D2000BDE8F047FFF797BB002D1CD00025206899
:104D300008FA05F290F8E811114211D037F9151070
:104D400090F87D23B1EB021F0ADA90F8E60119F81A
:104D50000510C00701D00C2000E00D20FFF77BFB01
:104D60006D1C052DE3DBBDE8F0872DE9F041002146
:104D70000620FFF7B8FCF1480025F14EF14C87689A
:104D80000EE0E0683168284437F9100091F86513A7
:104D9000B0EB011F03DD29460A20FFF75CFB6D1C09
:104DA00020698542EDDB00250EE0A06831682844CB
:104DB00037F9100091F86513B0EB011F03DD2946A8
:104DC0000B20FFF748FB6D1C60698542EDDB14E4A6
:104DD0002DE9F041DB4D0020064628623EE03146D9
:104DE0000420FFF780FCD5480024876832E000BF2C
:104DF000FFF710FC02460B462046FFF711FB024668
:104E00000120002108F052FFD5E918231040194075
:104E100008431ED1CA49A8682044096807EB40002E
:104E200030F9040C91F87813B0EB011F07D9314623
:104E30000820FFF710FB21460920FFF70CFBA868AC
:104E4000296A204407EB400030F9040C884200DD59
:104E50002862641C68698442CAD3761C2869864229
:104E6000BDD315E72DE9F047B64C00200546DFF825
:104E7000CC82DFF8CC92E06121E029460320FFF7E5
:104E800032FC6068D8F80870122801D9032600E0C7
:104E9000012637F91610D9F8000090F87603B1EB27
:104EA000001F03D929460720FFF7D5FA37F9160066
:104EB000E169884202DD37F91600E0616D1C206966
:104EC0008542DAD34FE72DE9F04100210220FFF7B8
:104ED0000AFC9A489A4D9B4C8768286890F86003B2
:104EE000000713D500260EE0E0682968304437F942
:104EF000100091F87413B0EB011F03D93146032061
:104F0000FFF7A9FA761C20698642EDDB286890F845
:104F10006003C00613D500260EE0A068296830445F
:104F200037F9100091F87513B0EB011F03D9314622
:104F30000420FFF790FA761C60698642EDDBA7E655
:104F40002DE9F04F89B00020FBF77BFB4FF4801078
:104F5000411208F02FFFFCF7A6FCFCF787FC794C08
:104F600000202060FFF760FBCDE90401FFF752FB52
:104F7000CDE90601082104A8FDF718FA0546082125
:104F800006A8FDF713FA014600EB4500C4E9020547
:104F9000C4E904516A4D286890F86003010701D400
:104FA000C00601D5FFF78FFF286890F860038006E0
:104FB00001D5FFF757FF286890F86003000601D578
:104FC000FFF706FF286890F86003C00701D0FFF7DD
:104FD000CCFE286890F86013490704D590F8E801E2
:104FE00008B1FFF756FE286890F86003400601D527
:104FF000FFF7ABFD286890F86003800701D5FFF745
:1050000089FC206800287DD004F1300393E8C810A3
:105010009F432CEA060CC4E90E7CD4E90A0121EA7C
:105020000609D4E91821D4E9168598438E468D43A4
:10503000B84329EA0C01C4E90A01CDE90201D4E927
:105040001AA928EA020828EA0A0825EA0905C4E993
:1050500016859346D4E914129943B243CDE9001260
:10506000DDE90012374DB943803522EA0C02D5E95B
:105070000008D4E910C721EA0C01BA43C4E91412AC
:10508000D4E91C2120EA0B0028EA0E0820EA0A00D5
:1050900028EA0908904328EA0108C5E9000823EA3C
:1050A0000C03BE43C4E90C36DDE902010122FFF71F
:1050B000A1F9D4E916010222FFF79CF9D4E90C0109
:1050C0000322FFF797F9D4E918010422FFF792F9B8
:1050D000D4E90E010722FFF78DF9D4E91001082267
:1050E000FFF788F9D4E91C010922FFF783F9D4E915
:1050F00012010A22FFF77EF9D4E91E010B22FFF705
:1051000079F900E014E0D4E914010C22FFF772F9F8
:10511000D5E900010D22FFF76DF9D4E91A010E223D
:10512000FFF768F90020FBF7A7FA09B0BDE8F08F98
:105130000021084602F0BEFFF4E7000068541000AA
:1051400020091000B8091000704708B55E4D5F4E89
:105150005F4F0024287880B10128FBD16B460022E4
:1051600041F27D71FBF7D1F90098C1071ED00121F2
:105170000846FBF7A9F92C70ECE701210020FDF7A8
:10518000FBFA6B46002202210120FBF7BEF9012148
:105190000846FDF7F1FA00988007DBD541F27F71F0
:1051A0000120FBF791F901202870D3E701070CD506
:1051B00008210120FBF788F90020FBF742FA0620BE
:1051C000FBF73FFAFEF7CFFB1DE041070CD50421AA
:1051D0000120FBF779F90020FBF733FA0620FBF7F3
:1051E00030FAFEF77FFE0EE0C10413D54FF4805174
:1051F0000120FBF769F90020FBF723FA0620FBF7F3
:1052000020FAFEF705FC0620FBF736FA0020FBF734
:1052100033FA9FE7C10609D510210120FBF754F9A5
:105220003078002896D1FEF785FF93E7810609D5EF
:1052300020210120FBF748F9307800288AD1FFF7B8
:105240009BF887E7C10502D54FF4807103E0810523
:1052500005D54FF400710120FBF736F97AE74106D6
:1052600006D540210120FBF72FF9FFF769FE71E712
:1052700040059AD54FF480610120FBF725F91548C8
:1052800004601548D0F8008004604046FEF712F82C
:105290005FEA887001D500F082FBA8F57061BF3924
:1052A00001D105200AE05FEAC87001D0152005E0B1
:1052B00018F0420F04D0386840F0060002F09CFF5E
:1052C000064804603C6045E7500A1000430910009E
:1052D00030091000F40A1000240910002C091000F5
:1052E000FE4900200870FE490870FE490870FE491A
:1052F00008700121FD4A1170FD4A1170FD49C86016
:105300000861488008708861C8610862FA480068CE
:10531000B0F852210A81B0F85401C88000F070BE84
:1053200030B50024234605E030F913508D4200DDEE
:10533000641C5B1C9342F7DBEF48006890F8610146
:10534000A04201D2012030BD002030BDF0B50025C3
:105350002F462C46DDF814C009E000BF30F9146078
:10536000B54203DA964201DD3546E7B2641C8C4251
:10537000F4DB25B18CF8007001201D60F0BD002029
:10538000F0BD30B585B0DC4C01A800902068002548
:1053900003ABB0F95221017DD848FFF7D7FF50B1D8
:1053A00023689DF8040093F88A2102F00F018142DE
:1053B00019D81B7D14E002A80090206804ABB0F956
:1053C0005421417DCE48FFF7C1FF68B123689DF8A5
:1053D000080093F88A2102F00F01814203D85B7D17
:1053E000591A814200DA150905B0284630BDFEB5CC
:1053F000C14801AB5022006890F88911B0F987715B
:1054000001F00F060C09B0F9855102A90091017D48
:10541000BA48FFF79BFF0198B84201DD3046FEBD58
:10542000A84201DA2046FEBD401B311B4843791BD0
:1054300090FBF1F02044FEBD30B5B248AE4D04788B
:10544000286890F85101800703D5FFF7D0FFA4EB3F
:105450000004286890F85101400702D5FFF791FF3A
:105460000444002C01DA002402E00F2C00DD0F249C
:10547000204630BD30B564290CD00023642407E0F9
:1054800030F913504D4395FBF4F520F813505B1C95
:105490009342F5DB30BD70B5002364250AE0CC5C97
:1054A000642C06D030F91360664396FBF5F420F8BF
:1054B00013405B1C9342F2DB70BD2DE9F0470025E1
:1054C000894629462F462E46A8462B460DE000BFAA
:1054D00030F913C039F913400CFB0C660CFB047750
:1054E00004FB0488654421445B1C9342F0DB87FB8A
:1054F000020485FB013CC71A86FB020385FB056598
:1055000064EB0C04B0EB060C63EB050688FB0203AE
:1055100081FB0121851A63EB01086421A7FB0103CC
:1055200004FB0131002207FB02113346624608F0FA
:10553000D0FB0246A2FB070301FB073102FB04116B
:105540002A46434608F0C5FB002C00DA4042BDE87D
:10555000F08730B547F6F873002405E030F91450B1
:10556000AB4200DD2B46641C9442F7DB002405E0CF
:1055700030F81450ED1A21F81450641C9442F7DBF3
:1055800030BD70B503460020024601EBD17408E03F
:1055900003EB420633F91250B6F90260AD1B284402
:1055A000521CB2EB640FF3DB621008E003EB420520
:1055B00033F9124035F9025C641B2044521C8A42C4
:1055C000F4DB70BDF0B587B007464B4C03A80090E4
:1055D00020689C468E461646017D002504AB0FFAD6
:1055E0008CF27046FFF7B2FE01283BD102A8009072
:1055F000206805AB32B2417D3846FFF7A7FE01288F
:1056000030D1DDE9041081424FF0640203DD5043E4
:1056100090FBF1F102E0514391FBF0F1206890F82A
:1056200092218A421EDD9DF8081019B990F8912147
:10563000D20716D0427D521E8A4203D190F89111B2
:1056400089070ED59DF80C1019B990F891215207D1
:1056500007D5027D521E8A4204D190F891010007BD
:1056600000D4012507B02846F0BD2DE9FC41224CAD
:1056700084460F4620680025164690F89011490789
:105680006AD5009690F89311427D0B091E49604639
:1056900001F078FD0096206890F89311027D0B09C7
:1056A00019493846403101F06DFD206890F890119D
:1056B000090632D5407D43F6FF76CDE90060124AF7
:1056C000334612491046FDF7E3FA20680E4A334686
:1056D000007D4032CDE900600D491BE0400910001B
:1056E000590910005A0910004109100070091000F2
:1056F00072091000540A10002009100068180120D7
:105700002818012073091000FC110120CC0C012085
:105710000C0D01201046FDF7BBFA01270097206809
:10572000FE49437DB0F89E21FD4801F0F9FD064693
:1057300000972068FB49037DB0F89C21F848403071
:1057400001F0EEFD0346F8490022F848012E06D08C
:10575000C261012B14D002622846BDE8FC81C669F3
:10576000761CC661276897F8937107F00F07B74258
:10577000EFDAC2610E68012546F040060E60E8E7E8
:10578000036A5B1C0362246894F8934104F00F04DD
:105790009C42E1DA02620868012540F0400008609E
:1057A000DAE7F0B40446E2480B46802100680D4673
:1057B00090F8680110B10146C0F58075DB4880881B
:1057C000032805D22146F0BC52001846FDF74AB91D
:1057D00000200EE033F9106034F910704E4307FBDF
:1057E0000566F71706EB176646F30F2623F81060D9
:1057F000401C9042EEDBF0BC7047F0B50024CC4D6D
:105800000FE030F8146031F81470012B0CD0F61B47
:105810002F6897F86D717F4206EBC70620F8146079
:10582000641C9442EDDBF0BD3E442F6897F86D7127
:10583000F2E72DE9FC47BD4D80460026A88890B9C7
:105840004022B649BB48FDF70DF96422B549BA4874
:10585000FDF708F9B2484021E43008F0ABFA6421C2
:10586000B64808F0A7FAA8880127B14C032802D24D
:10587000B348077013E012D92168B1F86B21824256
:105880000DD94B7DAD49AB4A4039A44801F02BFD01
:105890002068A94AA949037DA24801F024FD206897
:1058A00090F85011427D090710D590F88D11CDE97F
:1058B000001290F88B31A34A98494046FDF7E8F969
:1058C00020689749427DA4399E4802E094494046A9
:1058D000A439FFF766FF2068904A90F85011437D85
:1058E0000907994901D5974800E0404601F0FBFCC3
:1058F00020688A4A9449437D8948A43801F0F3FC22
:10590000206890F85011C90610D5427D90F8961283
:105910008D48FFF7AFFD216891F85001C00605D50D
:105920004A7D01F51C718848FFF7B5FD2268B2F881
:105930005411B2F86901B2F87F4101440BB2A98851
:105940008C4201D2184403B200200446DFF8FCC1A7
:10595000DFF8F491527D1CE039F91080984515DD8F
:10596000761C022E13D96878401C40B2687000285B
:1059700004DD77488CF800706C70077047F6FF7094
:10598000814201D2491CA980BDE8FC870026401C49
:1059900000B28242E0DC6C708CF80040EEE76448B4
:1059A000006890F89011890606D5604901220A70B6
:1059B00090F895010009886170472DE9F34FDFF8F1
:1059C00094910025012699F80000DFF8848183B0C6
:1059D0002F462C4601281FD0DFF854B1DFF878A1FC
:1059E000DBF8000090F82010C9061CD590F82510AF
:1059F0005A480288914216D20480DAF80010012039
:105A000041F02201CAF80010B102FAF72FFD88F820
:105A1000006005B0BDE8F08F88F8006000F0F0FA93
:105A200089F80040F5E70320FAF70BFE4C48DFF851
:105A3000FC900078012870D0B9F80400012817D92B
:105A4000DBF800003D49DC46427D01234039334804
:105A5000FFF7D3FEDCF8000001233849027D31480E
:105A6000FFF7CBFEDCF800003E4990F8FD0208701D
:105A70000020A9F8040098F80020DDE903014C4655
:105A8000FFF7F3FD8146DBF8000090F87001400657
:105A900006D5E069002802DC206A002800DD012725
:105AA000FFF7CAFC01902A481D49D84600780090AB
:105AB000DBF80000A439019B427D039801F062FBF2
:105AC00023481749019B00780090D8F800006439FA
:105AD000027D049801F056FBD8F8000090F85011B0
